:10000000782400200D0100000B0100000B0100000E
:1000100000000000000000000000000000000000E0
:100020000000000000000000000000000B010000C4
:1000300000000000000000000B0100000B010000A8
:100040000B0100000B0100000B0100000B01000080
:100050000B0100000B0100000B0100000B01000070
:100060000B0100000B0100000B0100000B01000060
:100070000B0100000B0100000B0100000B01000050
:100080000B0100000B0100000B0100000B01000040
:100090000B0100000B0100000B0100000B01000030
:1000A0000B0100000B01000010B5064C2378002B5B
:1000B00007D1054B002B02D0044800E000BF01230C
:1000C000237010BD340400200000000098030000DD
:1000D000084B10B5002B03D00749084800E000BFCB
:1000E00007480368002B00D110BD064B002BFBD046
:1000F0009847F9E70000000038040020980300004A
:1001000098030000000000007047FEE710B5174A92
:10011000174B9A4211D01A00164B9A420DD2164A2A
:1001200003339B1A9B0801339B00002210480F49A0
:100130008C58845004329A42FAD1104A104B9A4299
:100140000AD2D3430E495B1803218B4304339B1817
:10015000002102C29342FCD10A4AFF210A4B8B4381
:1001600093600A4B98470A4B9847FEE798030000B4
:10017000000000203404002004000020340400208B
:100180007404002000ED00E000000000D101000038
:10019000A9010000014A024B1A60704740420F005B
:1001A000000000207047000010B5044B9847044B36
:1001B0009847044B9847044B9847FEE79501000089
:1001C00009010000CD010000A501000070470000FA
:1001D00070B50D4E0D4D0024AD1BAD1005D0A30024
:1001E000F35801349847A542F9D100F0C3F8084EFE
:1001F000084D0024AD1BAD1005D0A300F358013409
:100200009847A542F9D170BD80030000800300002B
:100210008003000088030000034B10B5002B02D0C0
:10022000024800F005F810BD000000004102000087
:1002300010B5010000230022002000F01FF810BDBF
:1002400070B5094B094CE41AA41009D0084AA51846
:10025000AD00ED182B68013C9847043D002CF9D106
:1002600000F092F870BDC0469403000098030000AF
:10027000FFFFFF3F7047C0467047C046F0B54E468F
:100280004546DE465746E0B5364D83B00600286841
:1002900098460F009146FFF7EDFF334B1C68A423EF
:1002A0005B00E058002852D043681F2B13DC5A1C17
:1002B0000192002E28D1019A02339B0042601F5008
:1002C0002868FFF7D9FF002003B03CBC9046994650
:1002D000A246AB46F0BD254B002B3DD0C8204000C8
:1002E00000E000BF002837D0A42200235200A1580C
:1002F00043600160A0504032835004328350013388
:1003000001930023002ED6D09A00924682444A469A
:10031000882154466250C4225200914681444A4684
:100320008739994012688B460A4394464A4661468B
:100330001160842241465200A150022EBBD102001E
:100340005C468D32FF3211680C431460B3E7200025
:100350004D30FF30E050A7E72868FFF78DFF012000
:100360004042B1E7300400207003000000000000AC
:1003700008000020F8B5C046F8BC08BC9E4670478F
:1003800019020000D1000000F8B5C046F8BC08BC56
:080390009E467047A900000021
:1003980040420F000000000000000000F4020020AE
:1003A8005C030020C40300200000000000000000DF
:1003B8000000000000000000000000000000000035
:1003C8000000000000000000000000000000000025
:1003D8000000000000000000000000000000000015
:1003E8000000000000000000000000000000000005
:1003F80000000000000000000000000000000000F5
:1004080000000000000000000000000000000000E4
:1004180000000000000000000000000000000000D4
:1004280000000000000000000000000000000000C4
:1004380000000000000000000000000000000000B4
:1004480001000000000000000E33CDAB34126DE651
:10045800ECDE05000B0000000000000000000000BA
:100468000000000000000000000000000000000084
:100478000000000000000000000000000000000074
:100488000000000000000000000000000000000064
:100498000000000000000000000000000000000054
:0407C80050040020B9
:00000001FF
